:10080D00011D00011E00011F00011600011900410C
:0D081D0000710043007400000041007300F2
:100026007FF47E01120BF2D2AF120C96120CC97F2E
:10003600647E00120BF27F07120C2D7F07120C2D27
:100046007F07120C2DEFD394864017751D337FB8AA
:100056007E0B120BF2E4F51D7F0AFE120BF2C2AF05
:1000660080FE751D347FE87E03120BF2E4F51D1247
:100076000CC9120A6712000E120CB97B007A0079BD
:1000860036120BA47DFF7F27120C48120CA9E5152A
:100096006003020122900071E0146023146033149F
:1000A600604314605314606324057070900074E01C
:1000B600F51DA3E0F51EA3E0F51F751A05805D90FA
:1000C6000074E0F51DA3E0F51FA3E0F51E751A0701
:1000D600804A900074E0F51EA3E0F51DA3E0F51F2D
:1000E600751A0B8037900074E0F51EA3E0F51FA388
:1000F600E0F51D751A0F8024900074E0F51FA3E04B
:10010600F51DA3E0F51E751A138011900074E0F535
:100116001FA3E0F51EA3E0F51D751A15E515603958
:10012600E5167035F518E515B40110751901D3E516
:100136001C94F4E51B94014017802AE515640270AF
:100146003CF519D3E51C94F4E51B94014002802488
:10015600E4F51DF51EF51F8024E516C39401401D28
:10016600E519B4010B751D31751E31751F31800DF2
:10017600E5197009751D32751E32751F3212063764
:1001860090006EEFF0700302024DA3E0FF90006E48
:10019600E0FD2FFFE433FE900070E0FC7A002FFFB5
:1001A600EA3EFEEF64064E600302024DA3E0FF70D6
:1001B60011EDB4020D90006FE0B40306ECB4010239
:1001C600807BEFB4011390006EE0B4020CA3E0B4A0
:1001D6000107A3E0B403028064900071E0B4021347
:1001E60090006EE0B4030CA3E0B40207A3E0B401F0
:1001F60002804A900071E0FFB4031390006EE0B4F1
:10020600010CA3E0B40207A3E0B40302802FEFB40D
:10021600041390006EE0B4030CA3E0B40107A3E05E
:10022600B402028018900071E0B4051690006EE0EA
:10023600B4010FA3E0B4030AA3E0B40205751501E7
:1002460080087515028003E4F515E5152430FF12C4
:100256000003AE1BAF1C7C007D641208D9D3ED945D
:1002660032EC94004028900073E0702204F0F536DA
:10027600851E37120CB97B007A007936120BA47DE5
:10028600FF7F27120C48753601851E37803CAE1B52
:10029600AF1C7C007D641208D9C3ED9432EC940047
:1002A600503E900073E064017036F0753602851F8B
:1002B60037120CB97B007A007936120BA47DFF7FCA
:1002C60027120C48753602851F37120CB97B007A47
:1002D600007936120BA47DFF7F27120C48120CA959
:1002E6007B017A007934120C10EF700302009490AF
:1002F6000034E0FFB40106A3E090006FF0EFB40213
:0F03060008900035E0900070F0120CA9020094EE
:10000E00759850438E01438E0475D7E875D6FF431D
:05001E008E10D2AC229F
:080003008F993099FDC299228A
:100C5D0012089EFF600C120003740129F9E43AFAA0
:030C6D0080EE22F4
:040AF3008E608F6121
:100AF7007B04AE60AF617C007D0A1208D974622B5B
:100B0700F8A605AE60AF617C007D0A1208D98E6039
:100B17008F611BC3EB6480948050D7E4FB74622B16
:0C0B2700F8E62430FF1200030BBB05F1C0
:010B3300229F
:0300230002057D56
:10057D00C0E0C0F0C083C082C0D075D000C00720DD
:10058D00980302062AC298859967E567B4410E90D3
:10059D00006D7401F090006CE4F002062AE56764CA
:1005AD00447064F516900058E024D0900071F090DE
:1005BD00005AE024D075F00AA4FFA3E024D02F90B8
:1005CD000072F090005DE024D075F00AA4FFA3E066
:1005DD0024D02F900074F090005FE024D075F00AC5
:1005ED00A4FFA3E024D02F900075F0900061E024CB
:1005FD00D075F00AA4FFA3E024D02F900076F075FB
:10060D001801756900801690006CE02458F582E49D
:10061D003400F583E567F090006CE004F0D007D06E
:0A062D00D0D082D083D0F0D0E032AC
:100BF200EF1FAA0670011E4A6013E4FCFDC3ED94C8
:0D0C0200F4EC940150EA0DBD00010C80F0EF
:010C0F0022C2
:0B0CE300EF1FAC0670011E4C70F622E3
:1003150001020408102040800000000000804040D9
:10032500404080000000000000000000000E121296
:1003350012120F0000000000000000404040408005
:10034500804040404080000000001C222222120F05
:10035500122222222213000000000080C0404040EB
:1003650080000000C40000000000001F322222228D
:10037500130200003F00000000000080404040C024
:10038500800000C4000000000000001C2222221290
:100395003F00003F0000000000804040408000001A
:1003A50000C000000000C00018342222123F0000E7
:1003B500001F202020103F000040404040800000EA
:1003C50000C000000000C0000C121212120F000045
:1003D500001F202020103F000000000000C08040CA
:1003E50040408000000000000000000000FF0810F1
:1003F50010100F00000000000000000000FC0000CD
:10040500008040000000000000000000003F0402E2
:10041500051820000000000000000000000040F862
:100425004C44000000000000000000000000003FF8
:1004350000000000000000000000000000804040B7
:100445004080000000000000000000000011222292
:10045500241800000000000000000000000000F863
:100465000404080000000000000000002040403F98
:100475000000000000000000000000000080008077
:10048500808000000000000000000000007F0100E7
:1004950000007F000000000000000000000000F8E0
:1004A5000000000000000000000000000000007FC8
:1004B5000000000000000000000000000000000037
:1004C5008080000000000000000000000000007FA8
:1004D5000000000000000000000000800000008017
:1004E50000000000800000000000000738601E01C9
:1004F5000738601C010000000000C02010880808B3
:100505000808881024C8040200000F182025684830
:1005150048682520180F00000000804020101010AA
:100525001010102040A8102800000F102053484834
:1005350048485320100F000000000000F8080C0C7C
:100545000C0C08F800000000000000003F202828DF
:100555002828203F00000000FF01010101010101E1
:1005650001010101010101FFFF8080808080808001
:0805750080808080808080FFFF
:10082A006034000000000000000000000001000227
:10083A000304000000000506070000000800090084
:10084A000A0000000B00000000000000000C00007D
:08085A000D0E000F1011121326
:100C7000E4FEC2A2EF3392A0EF25E0FFD2A20EBEA7
:020C800008F07A
:010C8200224F
:100C8300E4FEC2A2EF1392A0EFC313FFD2A20EBEE3
:020C930008F067
:010C9500223C
:050CF900C2A1D2A122FE
:1009BA00AC07EDF4FF120C83EBF4FF120C83EC246A
:1009CA00F9D3648094804015ECFF3395E0FE740DF2
:1009DA002FF58274033EF583E493FF80027F0012B1
:1009EA000C70EC24F9D3648094805016AF04EF3372
:1009FA0095E0FE74152FF58274033EF583E493FFA8
:0A0A0A0080027F00120C70020CF94C
:1006D600AC07ED24F9D3648094804015EDFF339583
:1006E600E0FE740D2FF58274033EF583E493FF80DC
:1006F600027F00EFF4FF120C83ED24F9D36480949B
:10070600805016AF05EF3395E0FE74152FF5827411
:10071600033EF583E493FF80027F00EFF4FF120CA3
:1007260083EC24F9D3648094804015ECFF3395E084
:10073600FE740D2FF58274033EF583E493FF800269
:100746007F00120C70EC24F9D3648094805016AFAD
:1007560004EF3395E0FE74152FF58274033EF5839E
:0D076600E493FF80027F00120C70020CF97A
:100A1400EF7004FBFD80461F74002FF582E4340060
:100A2400F583E0FC75F020A424FDF582E5F03402A2
:100A3400F583E5822568F582E43583F583E493FD47
:100A440075F020ECA4240DF582E5F03403F583E57C
:100A5400822568F582E43583F583E493FBAF68125D
:030A640009BA22AA
:10086200202036010203040506070809101112139D
:100872001415161718192021222324252627282982
:100882003031320A2C003400430010001000010AFB
:0B0892002200340043001000100001A1
:100BCF00E4FDFCC3ED9FEC9E50070DBD00010C80B2
:100BDF00F2E4FCFDC3ED9FEC9E50070DBD00010C30
:020BEF0080F292
:010BF10022E1
:0B0CEE00EFD394004004001F80F622AA
:040B6F00C2B77E008B
:040B73008E138F143A
:100B7700E4FBFAE5143392B6E51425E0F514E51322
:100B870033F513D2B4A2B5E4334214C2B40BBB009D
:0C0B9700010AEB64084A70DBAE13AF14D7
:010BA300222F
:0B0CD700120B6FE4FFFE120B73D2B78C
:010CE20022EF
:100C4800120B6F8F828E83AF057E00120B73D2B7A3
:040C5800AE83AF8236
:010C5C002275
:060B34008B0A8A0B890CFC
:100B3A00120B6F8E0E8F0FE4FDFCC3ED950DEC9436
:100B4A0000501BE4FFFE120B73AB0AAA0BA90C8D13
:100B5A00828C83EF1208B70DBD00010C80DCD2B77E
:040B6A00AE0EAF0F0D
:010B6E002264
:070AAE007B007510057F2A93
:060AB5008B0D8A0E890F73
:100ABB00120B6F8E118F12E4FDFCC3ED9510EC94AD
:100ACB0000501EAB0D050FE50FAA0E7002050E149C
:100ADB00F912089EFF7E00120B730DBD00010C80F6
:070AEB00D9D2B7AE11AF1222
:010AF20022E1
:100CA900C2B37D0F7F20120C48D2B37F82020CEEB3
:100CB900C2B37D0E7F20120C48D2B37F82020CEEA4
:100C1000E4FC30B202FF22C2B3750D207F61120BDB
:0C0C2000347C017DFF7F27120C487F010F
:010C2C0022A5
:100BA4008B098A0A890BC2B37A00792C120AAEAB7C
:100BB40009AA0AA90B7510207FA0120AB57D0E7F21
:0B0BC40020120C48D2B37F0A020CEE96
:100A67007F64120CEEC2B3D2B7C2B47B007A0079AE
:100A77002C7510057F30120AB57A007922120AAE5A
:100A87007D017F21120C487F22120C481D7F251201
:100A97000C487D207F31120C487D077F26120C48B9
:070AA7007D0F7F20020C48C7
:0E0CC900758901758CFC758A18D2A9D28C220F
:03000B0002077376
:10077300C0E0C0F0C083C082C0D075D000C000C04C
:1007830001C002C003C004C005C006C007758CFCCD
:10079300758A180568E568D3940F4003756800AF40
:1007A3001D120A14051CE51C7002051BD394E8E511
:1007B3001B9403403A751B00751C00E515601B056F
:1007C30069E569D394054012900074E4F0A3F0A3A3
:1007D300F0F515F518D2AC751601E518B4011090B3
:1007E3000072E014F0E07007751502F518D2ACD072
:1007F30007D006D005D004D003D002D001D000D05A
:0A080300D0D082D083D0F0D0E032D4
:100C9600E4F592F591759DFFF5BD75BC807F02FE6A
:030CA600020BF24C
:100C2D00EF4488F5BC00000000E5BC30E4FB53BC8C
:0B0C3D00EF7F057E00120BF2AFBD221E
:10063700E4900054F0A3F0900057F0900057E0FFCB
:100647002457F8E6FE74562FF8A606E0FF245CF858
:10065700E6FE745B2FF8A606E004F0E0B404DC7F46
:1006670001120C2D8F5A7F02120C2D8F5FE4900020
:1006770057F0900057E0FFC39405502B74562FF89E
:10068700E6C394645006900054E004F0900057E0ED
:10069700245BF8E6C394645006900055E004F0909C
:1006A7000057E004F080CBE4900056F0900054E04F
:1006B700C394034006900056E004F0900055E0C351
:0E06C70094034005A3E02402F0900056E0FFEB
:0106D5002202
:0300000002092EC4
:0C092E00787FE4F6D8FD75816902097538
:10089E00BB010689828A83E0225002E722BBFE0258
:0908AE00E32289828A83E493228B
:1008B700F8BB010DE58229F582E5833AF583E8F077
:1008C700225006E92582C8F622BBFE05E92582C823
:0208D700F2220B
:1008D900BC000BBE0029EF8DF084FFADF022E4CC03
:1008E900F875F008EF2FFFEE33FEEC33FCEE9DECCC
:1008F900984005FCEE9DFE0FD5F0E9E4CEFD22ED12
:10090900F8F5F0EE8420D21CFEADF075F008EF2F5B
:10091900FFED33FD4007985006D5F0F222C398FD4C
:050929000FD5F0EA22E9
:10093A00020026E493A3F8E493A34003F68001F2AD
:10094A0008DFF48029E493A3F85407240CC8C333BE
:10095A00C4540F4420C8834004F456800146F6DF8D
:10096A00E4800B010204081020408090080DE47E08
:10097A00019360BCA3FF543F30E509541FFEE49382
:10098A00A360010ECF54C025E060A840B8E493A349
:10099A00FAE493A3F8E493A3C8C582C8CAC583CA74
:1009AA00F0A3C8C582C8CAC583CADFE9DEE780BE2C
:01089D00005A
:00000001FF
