:07066800015D004100730079
:10028E007FF47E01120981D2AF120A56120A23128E
:10029E0007F67F647E001209817F071209BC7F0773
:1002AE001209BC7F071209BCEFD394864017755D07
:1002BE00337FB87E0B120981E4F55D7F0AFE1209C9
:1002CE0081C2AF80FE755D347FE87E03120981E442
:1002DE00F55D1207F61209D7120A361204109000B5
:1002EE006EEFF07B017A00793412099FEF60EC908B
:1002FE000034E064017038A3E0F55D7536019000BE
:10030E006EE0F537120A467B007A00793612093311
:10031E007DFF7F2712000E120A467B007A00793687
:10032E001209337DFF7F2712000E120A36801D90B0
:10033E000034E0FFB40A05E4F55D8010EFB40B0560
:10034E00755D318007EFB40C03755D32120A36808D
:01035E008A14
:1009D700759850438E01438E0475D7E875D6FF434B
:0309E7008E10224D
:080003008F993099FDC299228A
:1009EA0012054CFF600C120003740129F9E43AFA6B
:0309FA0080EE226A
:040882008E568F57A8
:100886007B04AE56AF577C007D0A12058774582B41
:10089600F8A605AE56AF577C007D0A1205878E5620
:1008A6008F571BC3EB6480948050D7E4FB74582B9E
:0C08B600F8E62430FF1200030BBB05F134
:0108C2002213
:0300230002035F76
:10035F00C0E0C0F0C083C082C0D075D000C00720FD
:10036F009803020403C29885991FE51FB4410D90AD
:10037F00006D7401F090006CE4F08078E51F644428
:10038F00705C900058E024D0900071F090005AE01B
:10039F0024D075F00AA4FFA3E024D02F900072F0B0
:1003AF0090005DE024D075F00AA4FFA3E024D02FC5
:1003BF00900074F090005FE024D075F00AA4FFA3C2
:1003CF00E024D02F900075F0900061E024D075F0FC
:1003DF000AA4FFA3E024D02F900076F0801690009F
:1003EF006CE02458F582E43400F583E51FF09000AB
:1003FF006CE004F0D007D0D0D082D083D0F0D0E022
:01040F0032BA
:10098100EF1FAA0670011E4A6013E4FCFDC3ED943B
:0D099100F4EC940150EA0DBD00010C80F063
:01099E002236
:0B0A7000EF1FAC0670011E4C70F62258
:1000260001020408102040800000000000804040CB
:10003600404080000000000000000000000E121288
:1000460012120F00000000000000004040404080F7
:10005600804040404080000000001C222222120FF7
:10006600122222222213000000000080C0404040DD
:1000760080000000C40000000000001F322222227F
:10008600130200003F00000000000080404040C016
:10009600800000C4000000000000001C2222221282
:1000A6003F00003F0000000000804040408000000C
:1000B60000C000000000C00018342222123F0000D9
:1000C600001F202020103F000040404040800000DC
:1000D60000C000000000C0000C121212120F000037
:1000E600001F202020103F000000000000C08040BC
:1000F60040408000000000000000000000FF0810E3
:1001060010100F00000000000000000000FC0000BE
:10011600008040000000000000000000003F0402D4
:10012600051820000000000000000000000040F854
:100136004C44000000000000000000000000003FEA
:1001460000000000000000000000000000804040A9
:100156004080000000000000000000000011222284
:10016600241800000000000000000000000000F855
:100176000404080000000000000000002040403F8A
:100186000000000000000000000000000080008069
:10019600808000000000000000000000007F0100D9
:1001A60000007F000000000000000000000000F8D2
:1001B6000000000000000000000000000000007FBA
:1001C6000000000000000000000000000000000029
:1001D6008080000000000000000000000000007F9A
:1001E6000000000000000000000000800000008009
:1001F60000000000800000000000000738601E01BB
:100206000738601C010000000000C02010880808A4
:100216000808881024C8040200000F182025684822
:1002260048682520180F000000008040201010109C
:100236001010102040A8102800000F102053484826
:1002460048485320100F000000000000F8080C0C6E
:100256000C0C08F800000000000000003F202828D1
:100266002828203F00000000FF01010101010101D3
:1002760001010101010101FFFF80808080808080F3
:0802860080808080808080FFF1
:10066F0060340000000000000000000000010002E4
:10067F000304000000000506070000000800090041
:10068F000A0000000B00000000000000000C00003A
:08069F000D0E000F10111213E3
:1009FD00E4FEC2A2EF3392A0EF25E0FFD2A20EBE1D
:020A0D0008F0EF
:010A0F0022C4
:100A1000E4FEC2A2EF1392A0EFC313FFD2A20EBE58
:020A200008F0DC
:010A220022B1
:050A8600C2A1D2A12273
:10074900AC07EDF4FF120A10EBF4FF120A10EC24C7
:10075900F9D3648094804015ECFF3395E0FE741E54
:100769002FF58274003EF583E493FF80027F001227
:1007790009FDEC24F9D3648094805016AF04EF335B
:1007890095E0FE74262FF58274003EF583E493FF0D
:0A07990080027F001209FD020A86AB
:1004AF00AC07ED24F9D3648094804015EDFF3395AC
:1004BF00E0FE741E2FF58274003EF583E493FF80F7
:1004CF00027F00EFF4FF120A10ED24F9D364809439
:1004DF00805016AF05EF3395E0FE74262FF582742A
:1004EF00003EF583E493FF80027F00EFF4FF120AD2
:1004FF0010EC24F9D3648094804015ECFF3395E021
:10050F00FE741E2FF58274003EF583E493FF800284
:10051F007F001209FDEC24F9D3648094805016AF4C
:10052F0004EF3395E0FE74262FF58274003EF583B9
:0D053F00E493FF80027F001209FD020A868E
:1007A300EF7004FBFD80461F74002FF582E43400D4
:1007B300F583E0FC75F020A4240EF582E5F0340007
:1007C300F583E5822560F582E43583F583E493FDC3
:1007D30075F020ECA4241EF582E5F03400F583E5E2
:1007E300822560F582E43583F583E493FBAF6012E1
:0307F30007492291
:1006A700202036010203040506070809101112135A
:1006B700141516171819202122232425262728293F
:1006C7003031320A2C003400430010001000010AB8
:0B06D70022003400430010001000015E
:10095E00E4FDFCC3ED9FEC9E50070DBD00010C8025
:10096E00F2E4FCFDC3ED9FEC9E50070DBD00010CA3
:02097E0080F205
:010980002254
:0B0A7B00EFD394004004001F80F6221F
:0408FE00C2B77E00FF
:040902008E138F14AD
:10090600E4FBFAE5143392B6E51425E0F514E51395
:1009160033F513D2B4A2B5E4334214C2B40BBB0010
:0C092600010AEB64084A70DBAE13AF144A
:0109320022A2
:0B0A64001208FEE4FFFE120902D2B7E8
:010A6F002264
:10000E001208FE8F828E83AF057E00120902D2B7D0
:04001E00AE83AF827C
:0100220022BB
:0608C3008B0A8A0B890C70
:1008C9001208FE8E0E8F0FE4FDFCC3ED950DEC941E
:1008D90000501BE4FFFE120902AB0AAA0BA90C8DFA
:1008E900828C83EF1205650DBD00010C80DCD2B747
:0408F900AE0EAF0F81
:0108FD0022D8
:07083D007B007510057F2A06
:060844008B0D8A0E890FE6
:10084A001208FE8E118F12E4FDFCC3ED9510EC9494
:10085A0000501EAB0D050FE50FAA0E7002050E140F
:10086A00F912054CFF7E001209020DBD00010C8031
:07087A00D9D2B7AE11AF1295
:010881002254
:100A3600C2B37D0F7F2012000ED2B37F82020A7BE3
:100A4600C2B37D0E7F2012000ED2B37F82020A7BD4
:10099F00E4FC30B202FF22C2B3750D207F61120852
:0C09AF00C37C017DFF7F2712000E7F013A
:0109BB002219
:100933008B098A0A890BC2B37A00792C12083DAB62
:1009430009AA0AA90B7510207FA01208447D0E7F07
:0B0953002012000ED2B37F0A020A7BC4
:1007F6007F64120A7BC2B3D2B7C2B47B007A007997
:100806002C7510057F301208447A00792212083DB3
:100816007D017F2112000E7F2212000E1D7F251200
:10082600000E7D207F3112000E7D077F2612000EFE
:070836007D0F7F2002000E80
:0E0A5600758901758CFC758A18D2A9D28C2284
:03000B000206E307
:1006E300C0E0C0F0C083C082C0D075D000C000C0DD
:1006F30001C002C003C004C005C006C007758CFC5E
:10070300758A180560E560D3940F4003756000AFE8
:100713005D1207A3055FE55F7002055ED394E8E50C
:100723005E94034006755E00755F00D007D006D067
:1007330005D004D003D002D001D000D0D0D082D0D5
:0607430083D0F0D0E0328B
:100A2300E4F592F591759DFFF5BD75BC807F02FEDF
:030A330002098134
:1009BC00EF4488F5BC00000000E5BC30E4FB53BC00
:0B09CC00EF7F057E00120981AFBD2205
:10041000E4900054F0A3F0900057F0900057E0FFF4
:100420002416F8E6FE74152FF8A606E0FF241BF844
:10043000E6FE741A2FF8A606E004F0E0B404DC7FB0
:10044000011209BC8F197F021209BC8F1EE49000B3
:1004500057F0900057E0FFC39405502B74152FF808
:10046000E6C394645006900054E004F0900057E016
:10047000241AF8E6C394645006900055E004F09006
:100480000057E004F080CBE4900056F0900054E078
:10049000C394034006900056E004F0900055E0C37A
:0E04A00094034005A3E02402F0900056E0FF14
:0104AE00222B
:030000000205DC1A
:0C05DC00787FE4F6D8FD758160020623EC
:10054C00BB010689828A83E0225002E722BBFE02AD
:09055C00E32289828A83E49322E0
:10056500F8BB010DE58229F582E5833AF583E8F0CC
:10057500225006E92582C8F622BBFE05E92582C878
:02058500F22260
:10058700BC000BBE0029EF8DF084FFADF022E4CC58
:10059700F875F008EF2FFFEE33FEEC33FCEE9DEC21
:1005A700984005FCEE9DFE0FD5F0E9E4CEFD22ED67
:1005B700F8F5F0EE8420D21CFEADF075F008EF2FB1
:1005C700FFED33FD4007985006D5F0F222C398FDA2
:0505D7000FD5F0EA223F
:1005E80002028EE493A3F8E493A34003F68001F299
:1005F80008DFF48029E493A3F85407240CC8C33314
:10060800C4540F4420C8834004F456800146F6DFE2
:10061800E4800B0102040810204080900668E47E04
:10062800019360BCA3FF543F30E509541FFEE493D7
:10063800A360010ECF54C025E060A840B8E493A39E
:10064800FAE493A3F8E493A3C8C582C8CAC583CAC9
:10065800F0A3C8C582C8CAC583CADFE9DEE780BE81
:0106E2000017
:00000001FF
